:020000040000FA
:10000000A0020020C100000079130000E9110000E7
:10001000FFFFFFFFFFFFFFFFFFFFFFFFFFFFFFFFF0
:10002000FFFFFFFFFFFFFFFFFFFFFFFFF9150000CE
:10003000FFFFFFFFFFFFFFFF11150000811600000B
:1000400003010000030100000301000003010000A0
:100050000301000003010000FD0E00000301000089
:1000600003010000FFFFFFFF591200000301000021
:10007000030100000301000003010000FFFFFFFF78
:10008000FFFFFFFF7D0A00000301000003010000E5
:100090000301000003010000030100000301000050
:1000A0000301000003010000030100000301000040
:1000B0000301000003010000030100000301000030
:1000C0001048804710488047104800471048016991
:1000D000002910D1416900290DD1816900290AD177
:1000E000C169002907D1BFF34F8F0A490A48C86088
:1000F000BFF34F8FFEE77047FEE7FEE7FEE7FEE740
:10010000FEE7FEE7CD000000851600001D0100009F
:100110000003084000ED00E00400FA0503488546AE
:1001200000F014FC0048004739240000A002002021
:1001300030B50B46014600202022012409E00D467F
:10014000D5409D4205D31D469540491B2546954007
:1001500040191546521E002DF1DC30BD70B500244B
:100160002546002801DA01244042002901DA012550
:100170004942FFF7DDFFAC4200D04042002C00D0E6
:10018000494270BDF8B502464A40D40F42004B00C8
:1001900052085B089A4202D20246084611464A00BB
:1001A00023D0C30D4A00DDB2120EAD1A202D35DA70
:1001B00049020126490AF6058A19002C00D052424C
:1001C00020214F1B1146B9402A411018C20D9A42F6
:1001D00021D0002C17D0012D08DCDA05801AD20FAF
:1001E0008019D207DBB200F0CBF9F8BDDA05801A2E
:1001F000012340001B06C01880185A428018CA0FFD
:100200001043490007E04908C2071143DA05801A84
:1002100080194008801800F0ABF9F8BD6100012298
:10022000511A001BF7E70122D2075140AAE7012229
:10023000D2075040A6E7024670B54A40D30FDB070D
:1002400040002DD04A002AD0010E140E00021202E6
:100250000919400A520A8418E50104465443000A69
:10026000120A2E045043A4194219200CC543AA189F
:10027000120C0125AD03521C521912047F392404BB
:1002800000D0521C104301D44000491EC2B20C06DB
:10029000C0092018401C4008802A02D003E000203A
:1002A00070BD40084000002900DA0020184370BDEE
:1002B00070B502464A40D50F40004A00ED0740089D
:1002C0005208002814D0002A12D0C40DD30D4102C8
:1002D0000120C0055202490A520AE41A09181218EC
:1002E0007D34914201D3641C00E04900002C01DA06
:1002F000002070BD0023914201D3891A03434008B6
:1003000049000028F7D100290AD0914202D10121E9
:10031000C90705E0914201D2012101E00121C94351
:10032000E005C018401900F023F970BDF0B50C4687
:100330005C4085B0E40FE40703944C000026640899
:1003400059009446490802460296224321D062464B
:100350000A431ED06200570D4A000E032303550DB9
:10036000012402462C492405781B1B0B360B401830
:1003700023432643614600901C46501AB44103D3E0
:100380000098401C009002E0921800985B41002801
:1003900003DA0020014605B0F0BD00200121090567
:1003A0000746864611E064461D46141BB54106D338
:1003B0006546521BB341744607430C43A646CD071E
:1003C00040084908284392185B4105460D43EAD18D
:1003D0001046184313D060461946504071400843F8
:1003E00006D06046101AB34106D20122002306E06F
:1003F00000220123DB0702E00122D24353100098C0
:1004000074460105381C6141029C039D0019694135
:1004100000F0EFF8BFE70000FD030000C217C10FB6
:10042000504010B54018CA079623002100F0A8F8E4
:1004300010BD10B500229623114600F0A1F810BDA2
:10044000C20F410040020123400ADB05D207090E1A
:10045000C0187F2901DA00207047962903DC962313
:10046000591AC84001E096398840002AF4D0404229
:100470007047410040020122400AD205090E80184F
:100480007F2901DA00207047962903DC9622511A51
:10049000C8407047963988407047C20FD207400065
:1004A00040080BD0C10D0723DB01C9184002090524
:1004B000400A1143C208400711437047002001461B
:1004C0007047CB0FDB07490010B5490802460A43C5
:1004D00007D00A0D07240903E401090B121B002AA7
:1004E00001DC002010BDC900440F0C43C100E0181E
:1004F000D205801800F03CF810BD00000122D207A0
:10050000002800DB101A002900DB511A81427047D5
:10051000F0B51FB40646002082B005464024019184
:1005200000901BE0019922460F46304600F030FA59
:10053000049A059B801A994110D310461946224609
:1005400000F016FA361A8F41019722460120002149
:10055000009F00F00DFA38184D4100902046641EAF
:100560000028DFDC019B00982946324607B0F0BD29
:10057000002904DA401C490001D1400840007047BE
:1005800070B40024050C05D11024000402D1002908
:1005900021D01124050E01D100020834050F01D12C
:1005A0000001241D850F01D18000A41C002801DB5F
:1005B0004000641C002908D020252E1B0D46F54064
:1005C000A14000D001212943084301061B1B000A5A
:1005D000DB1D02D5002070BC7047DB0518188018A1
:1005E0000029F8DA401C4900F5D170BC40084000F1
:1005F000704710B5002B08DA0024401C61419218A6
:100600005B411A4301D14008400010BDF0B51FB452
:1006100082B005460C0003D0084601F01FFA02E044
:1006200001F01CFA2030024600902146284600F0D6
:100630009FF9049B059A04460F461843114308434B
:1006400014D0184610431BD0009840210A1A1846AF
:10065000059900F09DF905460E46009A0599049803
:1006600000F086F9084305D0012004E02046394611
:1006700007B0F0BD0020C11705430E432C4337439C
:1006800000990E986305401A7905E40A00220C438C
:10069000FD0A0A3002D500200146E9E701051019DC
:1006A00069410C9C0D9D00196941FFF7A2FFDFE72E
:1006B000F0B507460846584087B0C00F0490480080
:1006C0000E46590040084908BC1A884105D23846F0
:1006D00031461E4617460B46024658004008104356
:1006E0004CD0300D039040055900400D490D059048
:1006F000401A0290402872DA18030121000B090504
:100700000843019004980092002805D001995242B4
:100710000020884100920190029840210A1A019914
:10072000009800F025F905460C466B4607CB00F013
:1007300040F9C0197141039A0E0D0023D717564096
:100740001A467A40164344D0049A002A2DD0029AC1
:10075000012A039A15DC1205C01A914101263605BB
:10076000001C7141D20F059ED207009301920296A0
:100770002A462346FFF74AFF07B0F0BD3846314608
:10078000FAE71605224A0F46B218C01AB7410121EE
:100790000905001C4F4100187F4111461818794186
:1007A000E20F10436D19644113E0E2076D08154331
:1007B0006408C2071443039A01261205C01A914126
:1007C0003605001C7141CE07400830434908C01867
:1007D00051412A462346FFF70CFFCDE7FFE7049877
:1007E00001224000C117121A00238B4104983146A0
:1007F000C417381AA141EEE730B40124E40763407E
:1008000030BC55E730B40124E407614030BC4FE709
:100810000000E0FFF0B51FB488B00B9909980024E0
:1008200048400999C00F490049080991C0070B9930
:100830000090490049080B9109990898A646084379
:100840001CD00B990A98084318D00998012440003D
:10085000420D4800410D099824050003000B204378
:1008600009900B980003000B20430B9050181C4973
:100870004018002201901446104605E00020014671
:100880000DB0F0BD032801DA034600E003239C46C7
:10089000C11A0AAE0AE05F0008ADED5B4F00F75BDE
:1008A0007D430027AA187C41491C5B1E6145F2DD8F
:1008B000410004AB5A522104120C0A43240C401C80
:1008C0000828DFDB019802900099704601910090A2
:1008D000059B049A07990698FFF798FED0E7000059
:1008E0000DFCFFFF4A0009030123090B1B051943F7
:1008F0000A4B10B5520D9A4202DA0020014610BD93
:10090000064B34339A4203DC9A1A00F041F810BDCA
:10091000034BD21800F02CF810BD0000FF030000BC
:10092000CDFBFFFF10B5002904DB0124E4074042A2
:100930008C412146002B04DB1C460123DB0752427D
:10094000A341994200D1904210BD0000064C012500
:10095000064E05E0E36807CC2B430C3C9847103467
:10096000B442F7D3FFF7DEFB2C2900004C2900002E
:1009700010B5202A04DB0146203A9140002010BD2A
:10098000914020239C1A0346E3401943904010BD38
:1009900010B5202A04DB0846203AD040002110BDC3
:1009A0000B46D340D0402024A21A91400843194658
:1009B00010BD10B5202A06DBCB170846203A10419F
:1009C000C1170B4306E00B461341D0402024A21A66
:1009D00091400843194610BD30B50A460023002156
:1009E000072803DD01230446083CE0B29C00094DC2
:1009F0006419216885000F24AC400D46A5432946A3
:100A000085001446AC4021439C00024D64192160CE
:100A100030BD000000200240F7B50B46009DED0000
:100A2000154EAA19002000240027002120E00024F0
:100A30000027FF258D401D40002D17D000200FE01E
:100A40001D46C54001268E403540002D07D086004A
:100A50000F25B5402C438600029DB5402F43401C16
:100A60000828EDD31568A5433D431560121D0831D4
:100A70000829DCDDFEBD00002020024010B504483E
:100A80000068401C02490860024800F005F810BDEB
:100A90004800002000600740416849084900416063
:100AA000BFF34F8F7047000010B5094800680A2156
:100AB00048430446611E074800F03CF80021054801
:100AC00000F019F80121034800F006F810BD0000FD
:100AD0005800002000600740002904D00268042369
:100AE0001A43026003E0026804239A4302607047DD
:100AF000014688687047002904D0026802231A431F
:100B0000026003E0026802239A430260704700001B
:100B100010B50020054908600021054800F00CF8D8
:100B200001210348FFF7D8FF10BD00004800002056
:100B300000600740C16070478160704710B50021B8
:100B40000148FFF7C9FF10BD00600740F8B5114824
:100B5000FFF7CEFF0546FFF76CFC04460E49096817
:100B60000E4A51430A2251430846FFF762FC0B49E3
:100B700000900B480068FFF7DBFA0746FFF759FCC7
:100B8000064631462046FFF793FB05460099FFF7DE
:100B9000F9FAF8BD006007404800002040420F000D
:100BA0005800002070B504461F48406B4607760F7A
:100BB00000F03EF82060330000F067FF08160508DB
:100BC0000B16160E12162068606010E01748606061
:100BD0000DE0164860600AE00120C003606006E096
:100BE0007D200002606002E00020606000BF00BF66
:100BF0000D48056A052D02D36068400901E0606870
:100C0000E840A0600848806A072109040840050CF4
:100C1000072D04D10321A068FFF78AFA01E0A0683C
:100C2000E840E06070BD00000080084000127A00DB
:100C3000F0B517480068FF2701373840040A144808
:100C4000C069C50F124840687F003840460A002E30
:100C500001D10020F0BD002C01D10E4800E00D486C
:100C60000346012D01D11846F4E7094880690F2792
:100C7000FF053840C10D002900D1102104488069CA
:100C800003277F053840420D18464843D040E1E72E
:100C90000080084000127A007FB504466011800091
:100CA0000A49461800252E2C00D10225E406E40E40
:100CB0000321A14030680840E04045196846FFF72D
:100CC00071FF0298E84004B070BD00003880084011
:100CD0003FB50E4C606AE16A226B0446009DAC434E
:100CE00020460C46019DAC4321461446029DAC4370
:100CF0002246002B05D0009C2043019C2143029CEE
:100D00002243024C6062E16222633FBD00800840E2
:100D10000EB5002000900190029001210904009876
:100D2000884340180090490000988843401800907C
:100D30004900009888434018009049000098884373
:100D400040180090491101988843401801904900CB
:100D50000198884340180190029840084000401CC8
:100D60000290490002988843401802900123684687
:100D700007C8FFF7ADFF0EBDF8B5012211461A48AE
:100D800000F072F9FFF7C4FE00BFFFF7DFFE044674
:100D90001649FFF7B3FBF8D300220121124800F0F7
:100DA00063F900BF0221104800F055F90028F9D07E
:100DB000FFF7AEFE00BF02210B4800F04CF90128FE
:100DC000F9D0FFF7BBFEFFF7C1FE0090FFF765FB10
:100DD00004460022064BFFF7A9FA0646FFF771FB0F
:100DE00004490860F8BD000000000B4000002041ED
:100DF00000004D404C000020F8B5012208211A489F
:100E000000F032F9FFF784FE00BFFFF79FFE0446B3
:100E10001649FFF773FBF8D300220821124800F0AF
:100E200023F900BF0421104800F015F90028F9D07B
:100E3000FFF76EFE00BF04210B4800F00CF90128FB
:100E4000F9D0FFF77BFEFFF781FE0090FFF725FB4F
:100E500004460022064BFFF769FA0646FFF731FB0E
:100E600004490860F8BD000000000B40000020416C
:100E700000004D4050000020F8B50122D1031B486E
:100E800000F0F2F8FFF744FE00BFFFF75FFE0446F4
:100E90001749FFF733FBF8D300220121C903134898
:100EA00000F0E2F800BF01218903104800F0D3F8F8
:100EB0000028F8D0FFF72CFE00BF012189030B4862
:100EC00000F0C9F80128F8D0FFF738FEFFF73EFE22
:100ED0000090FFF7E2FA04460022064BFFF726FADD
:100EE0000646FFF7EEFA04490860F8BD00000B4023
:100EF0000000204100004D405400002010B50021AA
:100F00000C2000F029F8002813D0002009490860BF
:100F10000846016808A000F091FD0120074908601B
:100F2000002400E0641C06488442FBDB0C2000F037
:100F300009F810BD00000020256400000400002016
:100F4000A0860100014601228A401046014A5060F5
:100F5000906070474040024002460A4840680123C2
:100F60009340184000280BD006488068D040C00746
:100F7000C00F4840002801D0012070470020FCE746
:100F80000020FAE7404002400279D207037A1B07AB
:100F90001A43C3881A43114602689200014BD218C3
:100FA0001160704700400240012907D1074A1268CA
:100FB000012383401A43054B1A6006E0034A126876
:100FC000012383409A43014B1A607047404002401E
:100FD0000EB501210C20FFF7FFFC0C200090012131
:100FE000684601717D210902C18003210172FFF76A
:100FF000CBFF01210C20FFF7D7FF0EBD002A03D045
:1010000003680B43036002E003688B43036070478F
:10101000002A03D043680B43436002E043688B43DC
:1010200043607047002A06D183680B438360C3681E
:101030008B43C3600EE0012A06D1C3680B43C36033
:1010400083688B43836005E083688B438360C36858
:101050008B43C36070470246D3690B40002B01D01D
:10106000012000E000207047002A01D0416200E02A
:101070008162704710B5012280210020FFF7CCFC6F
:10108000012280213A48FFF7B9FF012211031046DF
:10109000FFF7C2FC0022012109033648FFF7AEFF2B
:1010A0000222D1023348FFF7BDFF0122110331486C
:1010B000FFF7AEFF042202210846FFF7ADFC042231
:1010C00011460120FFF7A8FC042208210320FFF7A6
:1010D000A3FC042210210120FFF79EFC01229103B2
:1010E0000220FFF799FC012291032348FFF786FFB6
:1010F000002202211E48FFF781FF002202211C4826
:10110000FFF790FF012202211948FFF781FF01221A
:1011100011461748FFF772FF002204211448FFF719
:101120006DFF002204211248FFF77CFF01220421F9
:101130000F48FFF76DFF012208210D48FFF75EFF02
:101140000022012189030A48FFF758FF00220121EC
:1011500089030748FFF766FF012291030448FFF760
:1011600057FF0122D1030248FFF748FF10BD0000DE
:1011700000000B4000200B4000400B40FEB5054630
:101180000E46280117494418002000900190029053
:1011900001214902019888434018019049010198B2
:1011A0008843401801900123684607C8FFF790FD67
:1011B000227AE1882079FFF72FFCA27BA189A07A0F
:1011C000FFF72AFC3146206800F0B0FB0122002125
:1011D000206800F0F1FB01221146206800F0ECFBD2
:1011E000FEBD00001C29000000BFFEE770B50446EC
:1011F0000D461646002015490870154961430846FA
:10120000FF21FEF7ABFF11494881124800F006FBB1
:1012100002200E4908700E4969430846FF21FEF777
:101220009DFF0A4948810B4800F0F8FA032007495E
:101230000870074971430846FF21FEF78FFF0349F5
:101240004881044800F0EAFA70BD000074000020F4
:10125000C05D000000C0024010B5FF21013106480A
:1012600000F0C0FA05480068002804D00348006870
:10127000401E0249086010BD00C00240100000205E
:1012800010B502464B7E18020B7E1B0618430C68F5
:101290008B6823434C68234318430C69CB68234372
:1012A0004C6923431843106710BD002904D0026F16
:1012B00010231A43026703E0026F10239A43026768
:1012C0007047000010B52748274908800020488053
:1012D00008718860FF2001308881244800F006FBF7
:1012E00000202349087007204880012008714871B8
:1012F00000208871C87108720120487200200870AF
:1013000048811A4800F08AFA022019490870002022
:101310004881164800F082FA032015490870002021
:101320004881124800F07AFA01204005114908600E
:1013300040104860C01088600020C860086120200C
:10134000486148200876002048760848FFF798FF53
:101350000121064800F04BFA01210448FFF7A5FFE0
:1013600010BD0000BF5D00006400002000C002400E
:10137000740000208400002070470000C206D20ED6
:1013800001219140014A11607047000000E100E036
:1013900010B5002819DA1A4A03071B0F083B9B08EF
:1013A0009B00D2588307DC0EFF23A3409A438B0790
:1013B0001B0E8407E40EA3401A43114B0407240FAD
:1013C000083CA408A4001A5118E00E4A03231B028B
:1013D000D21883089B00D2588307DC0EFF23A3405A
:1013E0009A438B071B0E8407E40EA3401A43054B58
:1013F000032424021B198408A4001A5110BD000004
:101400001CED00E000E100E010B50620FFF7B6FF9C
:1014100000210620FFF7BCFF10BD000070B58CB0A6
:101420000646002009900A900B90002500240B9896
:1014300040084000401C0B90012189030A98884312
:1014400040180A90012309A807C8FFF741FC0422AD
:1014500011020020FFF7E0FA31462A480068FEF743
:1014600067FE451E00E0641C611C2846FEF760FE16
:1014700025498842F7D8611C2846FEF759FE0546E3
:1014800068468582C4820021017600200790FF21F2
:1014900001316846018405A91C4800F027FAFF21A4
:1014A00001311A4800F09EF90121684601710721B7
:1014B000C18001210172002141728172C1720173E8
:1014C00001214173691C4322514308466421FEF700
:1014D0002FFE81B26846C18101A90C4800F09EF937
:1014E0000A20FFF74BFF01221102084800F08BF998
:1014F00001210648FFF7D9FE0121044800F077F9E1
:101500000CB070BD58000020FFFF000000C002407A
:1015100070470EB5E12040020090FF21013168467E
:1015200081800021C1800181418169460020FFF74F
:1015300025FE0EBDF8B505460027002400BF3DE09E
:10154000A1006858FEF77CFF0646FFF767FF0122FF
:1015500011461C4800F038F9A10068581A49FEF7F6
:101560006AFE1A490090FEF7A3FE0646FEF781FFC9
:101570001749086000BF164800680028FBD11548CD
:1015800000F0F6FE002201210E4800F01DF9A10036
:1015900068580D49FEF74FFE0C490090FEF788FE93
:1015A0000646FEF766FF0A49086000BF0848006863
:1015B0000028FBD1084800F0DBFE641C022CBFDBD6
:1015C000F8BD000000C002400000A0400000C8427A
:1015D000100000200050C34700B88847C1B2054A38
:1015E000116000BF03490969FF220132114000293F
:1015F000F8D070470000044070470000042806D16E
:101600000649096904221143044A116105E00349AE
:10161000096904229143014A1161704700E000E02A
:10162000002803D10021094A91610EE0012806D16A
:101630000649096901221143044A116105E0034981
:10164000096949084900014A1161704700E000E05A
:10165000002806D00649096902221143044A116193
:1016600005E00349096902229143014A116170476B
:1016700000E000E0014948617047000000E000E040
:101680007047000010204B49C86001204A4908609B
:101690004A48006B402108434849086300BF484856
:1016A00080682728FBD14548406A03218902884386
:1016B00042494862084640680121C90208433F493F
:1016C000486000BF3D4880680007C00F0028F9D07F
:1016D0003A484068C008C000C01C3849486000BF94
:1016E0003648406B4007400F0328F9D13548006861
:1016F000C008C000401C3349086000202F49086220
:1017000008464068491588432C49486008460068E7
:1017100089150843294908600846406809150843A7
:101720002649486000BF254880684007C00F002850
:10173000F9D02248006B40218843204908630846BD
:101740000068891588431D490860032000068861E8
:1017500008464068491508431849486000BF1748C3
:1017600080688007C00F0028F9D016480068C008BC
:10177000C000801C13490860002010490862084618
:101780004068C008C000401C486000BF0B48406B68
:101790004007400F0128F9D10A480068102108438A
:1017A0000849086008460068012109030843054903
:1017B00008607047008108400083084000800840AE
:1017C00000A106400002084030B5036D4D00012421
:1017D000AC40A3430365036D4D001446AC40234366
:1017E000036530BDCA43C267BFF34F8F70470029FE
:1017F00004D0026901231A43026103E0026952081E
:10180000520002617047002A03D0436F0B434367C5
:1018100002E0436F8B43436770470000FCB50D78CF
:10182000AD0006464036AC190D78AD005036AD1906
:1018300001950D78AD001036AD1900950D786D0647
:101840002A0E03259540EF43274DA84203D10325D7
:101850009540EF4302E001259540EF43224DA84219
:1018600000D100BF056D3D400565436D3B401E4DF9
:10187000A84206D18D79CE797600354395402B4329
:1018800002E08D7995402B434365174DA84209D15D
:10189000C56E3D402B460D7A4E7A76003543954015
:1018A0002B43C3662568FF260836B54325602568A7
:1018B0004E88354325604E89019D2E608E89009D9E
:1018C0002E60094DA84208D10D794E797600354336
:1018D0009540066D3543056504E0056D0E7996402B
:1018E00035430565FCBD000000C002400B8888221E
:1018F00013504B8884221350026803231B049A431D
:101900000260026801231B069A43026002688B682A
:101910001A430260044A904202D10B798C22135080
:101920008A8982677047000000C0024070B5044693
:101930000D4660681C490840E9880843A9880843A7
:10194000298908436989084360600120800784422F
:1019500007D11820FFF7A0F906462968FEF7E8FB33
:1019600060621248844207D11A20FFF795F90646B3
:101970002968FEF7DDFB60620D48844207D11C2018
:10198000FFF78AF906462968FEF7D2FB606209482C
:10199000844207D11E20FFF77FF906462968FEF72B
:1019A000C7FB606270BD0000FCE0FFFF0000044068
:1019B000001000400010044010B5002A05D0436814
:1019C00010248C402343436004E0436810248C407F
:1019D000A343436010BD000010B50E490E4800F04F
:1019E0000BFF64210B480088FEF7B8FB0B49086029
:1019F000642109480088FEF7B1FB094908600748DF
:101A0000016808A000F01AF80548016808A000F075
:101A100015F810BD44000020420000202C000020DA
:101A2000300000200D0A483A2025642525000000DA
:101A30000D0A543A20256443000000000FB410B58D
:101A400003A9044B044A029800F0F6F810BC08BC45
:101A500004B01847292400005C0000202021020C5B
:101A600001D010211046020A01D01046083902099F
:101A700001D01046091F820801D01046891E420875
:101A800001D0881E7047081A704730B47446641E2F
:101A90002578641CAB4204D3635D5B00E31830BC63
:101AA00018471D46F8E702E008C8121F08C1002ABF
:101AB000FAD170477047002001E001C1121F002ACF
:101AC000FBD17047F0B51FB486B00998089A030D92
:101AD0000021024314D05148514A181850430514AC
:101AE0001198012810981AD0281A401C00264D4F32
:101AF0004D49009601910490002812DA444211E009
:101B00001198012449A3012801D11098C1430698D6
:101B1000119A84600360C26041600BB0F0BD404226
:101B2000E4E70446210500203F4A001C514103918F
:101B3000029012E0E00707D032463B460199009838
:101B4000FEF768FE0191009032463B46104619466A
:101B5000FEF760FE06460F466410002CEAD104989A
:101B6000039B0028029A0999089806DAFEF752FEAC
:101B7000019B009AFEF74EFE05E0FEF7D7FB019BA6
:101B8000009AFEF7D3FB04460E460022284BFEF7D0
:101B9000C9FE03D80020C043014607E00022254BC0
:101BA00020463146FEF784FDFEF79CFE102409E036
:101BB000002C0ADB0A220023FEF7AAFC079B303226
:101BC0001A55641E02460A43F2D11122641C079B77
:101BD000121B1C19119B012B03D0012308430ED1AA
:101BE0000AE0084304D0112010900020119077E7FC
:101BF0001098151A6D1E0BE01098824202DD00232A
:101C00006D1C03E0824201DA00236D1E002BEED032
:101C1000069811998260C16030C07EE701FCFFFF29
:101C2000104D0000000014400000F03F30000000A4
:101C30000000F0430000E03FFFB597B006460025E6
:101C400018E2252877D100242746FD49049400E0B6
:101C50000443761C32780120203A90400842F7D1A4
:101C600030782A280ED002223078014630390929EE
:101C700016D804990A235943303940181443761C66
:101C80000490F1E7189802C804911890002904DA2A
:101C90000120400304434842049002200443761C80
:101CA00030782E2814D1042004437078761C2A281A
:101CB00009D11898761C80C8189009E00A214F4372
:101CC000303FC719761C3078014630390929F5D9DB
:101CD00030786C2810D006DC4C281AD068280ED03A
:101CE0006A2817D104E0742813D07A2812D110E0A2
:101CF0000120400504430CE00121090501E0032116
:101D000009050C437178814203D101200005241894
:101D1000761C761C3078119066280BD013DC58287E
:101D20007DD009DC00287BD04528F6D04628F4D0A9
:101D300047281AD1A5E118E0632835D0642870D06F
:101D4000652812D19DE170286CD008DC6728F1D09D
:101D500069287BD06E280DD06F2806D1BAE0732891
:101D60002ED0752871D0782859D01A9A1999904791
:101D70006D1C7EE16002400F022809D003280DD0BF
:101D80000428189801680DD00D60001D189070E1AE
:101D90001898EA1701680D604A60F6E7189801681C
:101DA0000D80F2E70D70F0E718986A46017811721D
:101DB000001D18900020507202A80090012005E03C
:101DC000189802C8189000200091C04361070DD5F3
:101DD000002101E00199491C0191B94212DA8142C6
:101DE000F8DB009A515C0029F4D10BE0002101E0FE
:101DF0000199491C01918142FADB019A0099895CA1
:101E00000029F5D1019904981A9B471A21463846B2
:101E1000199A00F097FA0199401945180BE04FE024
:101E20002CE113E04EE0009800990078491C0091E5
:101E30001A9A199990470198401E0190401CF2D1BE
:101E4000214638461A9B199A10E137E00A200021F2
:101E5000009001916002410F022907D0189A01CA2F
:101E60001892C2179446032908D00AE01898C01D9A
:101E7000C108C90005C91891944607E000B2C2170D
:101E80009446042902D140B2C1178C460022614613
:101E9000944506DA0A460021404291418C462D21A4
:101EA00002E0210504D52B216A461173012103E0CC
:101EB000E10701D02021F7E7029155E00A200AE06E
:101EC000102008E01020009000210420044301911C
:101ED000082703E008200021019100906002410FD3
:101EE000022907D0189A01CA1892002294460329A1
:101EF00008D008E01898C01DC108C90005C918918C
:101F0000944603E080B2042900D1C0B200210291BE
:101F1000210729D51199702906D0009A1021019B1B
:101F20004A401A4305D00EE040216A461173012150
:101F300008E06146014306D030216A4611731199C9
:101F4000517302210291009A0821019B4A401A43D1
:101F50000AD16146014301D1610705D530216A46A6
:101F6000117301217F1E02911199582904D035A1C6
:101F70000E910DA90D910DE037A1F9E76146019B86
:101F8000009AFEF7C5FA0E9B8C469B5C0D9A521E7A
:101F90000D92137061460143F0D10D9805A9081AFE
:101FA00020300190600703D501200004844300E045
:101FB00001270198874201DD381A00E000200199CD
:101FC00000904118029809180498401A0490E00300
:101FD00006D421461A9B199A049800F0B3F94519C2
:101FE000002706E003A81A9AC05D199990476D1C56
:101FF0007F1C02988742F5DBE0030CD521461A9B33
:10200000199A049800F09EF9451904E01A9A3020B4
:10201000199990476D1C0099481E00900029F5DC25
:1020200008E00D980D990078491C0D911A9A19999C
:1020300090476D1C0199481E01900029F1DC63E175
:10204000092801003031323334353637383961628E
:102050006364656600000000303132333435363752
:1020600038394142434445460000000000F05AF927
:102070004519761C3078002800D0E2E528461BB0D0
:10208000F0BD600700D406271898C01DC108C9001C
:1020900048680A680831C30FDB071891190001D09E
:1020A0009CA108E0210501D59BA104E0E10701D036
:1020B0009AA100E09AA1430011985B08109165284D
:1020C0000CD006DC452809D046281DD0472841D130
:1020D00041E0662818D067283CD13CE00021112F50
:1020E00001DB112000E0781C0191009008A911A8E3
:1020F000FFF7E8FC139905910021119A15927F1CB6
:1021000012980197009150E00120C0070390012030
:10211000019008A9009711A8FFF7D4FC139A14990D
:1021200005920022119B009212981593059A019234
:10213000002901D0104602E0791C40180190381A9D
:1021400001D5019804E04042401E0090781C0190A7
:10215000C01B029043E0012F00DA01270021112F5C
:1021600001DD112000E038460191009008A911A876
:10217000FFF7A8FC13990591119A00211298159266
:102180000091019721070CD40599B94201DB01990F
:1021900000E00191012904DD159A491E515C3029A6
:1021A00006D0B84201DA011D05DA0121029115E0DD
:1021B0000199491EEDE7002805DC009941180091BE
:1021C0000199091A03E0019A411C914200DD019135
:1021D0000099401A401C02900120C007039020077C
:1021E00006D402990198814202DB0020C04302908C
:1021F00000206946C87707AF012103980337C90754
:10220000884224D0022011902B201290039800289D
:102210000CDA404203902D20129007E00A21039827
:10222000FDF786FF30317F1E039039701199481EEB
:1022300011900029F2DC03980028EFD1791E129842
:1022400008703078202108404530BF1E387006A83D
:10225000C01BC01D039010980078002800D00120FA
:10226000019941180298C017091803980918049891
:10227000401A401E0490E00306D421461A9B199A86
:10228000049800F05FF8451910980078002803D0F2
:102290001A9A199990476D1CE00324D521461A9B80
:1022A000199A049800F04EF845191CE0009800288F
:1022B00007DB00990598884203DD1598405C199961
:1022C00001E0199930201A9A904700986D1C401C23
:1022D00000900298401E0290002804D11A9A2E20E5
:1022E000199990476D1C0199481E01900029DDDC69
:1022F00005E038781A9A7F1C199990476D1C03994C
:10230000481E03900029F4DC21461A9B199A049870
:10231000ACE600002D0000002B00000020000000B3
:1023200000000000F8B5044600251E461746880444
:1023300004D405E039462020B0476D1C641EF9D551
:102340002846F8BDFFB50446002581B01E46C803E7
:1023500001D5302700E02027880404D505E0384661
:102360000399B0476D1C641EF9D5284605B0F0BD31
:1023700070B50446002500E06D1C2846FEF74EF8B7
:1023800006462146FEF7BAF8F6D370BD10B50446EE
:1023900003E07D20C00000F013F82046611E8CB2DF
:1023A0000028F6D110BD10B5044603E07D20C00022
:1023B000FFF7ECFF2046611E8CB20028F6D110BD5D
:1023C00070B504460420C043FFF718F913490968A3
:1023D000C8081349FDF7ACFE0646FFF74BF900208D
:1023E000FFF736F90020FFF71BF90120FFF718F976
:1023F000002508E000BF0B480069012109040840DE
:102400000028F8D06D1CA542F4D30120C043FFF78B
:1024100007F90020FFF704F970BD00005800002004
:1024200040420F0000E000E070B504460D46204633
:10243000FFF7D4F870BD0000FFF76BF8FEF768FCFB
:10244000FEF718FEFEF7C4FDFEF7DEFFFEF73AFFCB
:10245000FEF72AFB00220121A348FEF705FE002219
:102460000821A148FEF700FE002220219E48FEF729
:10247000FBFD0022012189039C48FEF7F5FD0122A6
:1024800080219948FEF7F0FD0220FFF78CFF002025
:102490009749086002209749086024E1FFF79CFAF9
:1024A000FEF76AFC94480068FDF7F7FF04462246F1
:1024B0000B4692A0FFF7C2FAFEF79EFC9348006815
:1024C000FDF7EBFF044622460B4691A0FFF7B6FA54
:1024D000FEF7D2FC92480068FDF7DFFF0446224673
:1024E0000B4690A0FFF7AAFA9248016892A0FFF766
:1024F000A5FA9448016894A0FFF7A0FA7D48016806
:1025000094A0FFF79BFA7A48016895A0FFF796FA26
:102510009648016896A0FFF791FA9848016898A03C
:10252000FFF78CFA9AA0FFF789FA9A497748006872
:10253000FDF7E4FF03D201207E49086002E000209D
:102540007C490860934976480068FDF7D7FF03D2BD
:1025500001207C49086002E000207A490860754843
:10256000006800285AD177480068002856D183486F
:102570000068002852D05F480068012803D05D48F9
:10258000006802280ED184495B480068FDF7B6FF59
:1025900008D2012075490860002281035348FEF7E4
:1025A00063FD62E053480068012803D05148006889
:1025B00002280BD14E480068002807D16B490860FB
:1025C000012291034948FEF74FFD4EE0494800685B
:1025D00001280CD146480068012808D1042063492D
:1025E0000860012201034148FEF73EFD3DE04048FE
:1025F0000068012808D104205C490860002201031A
:102600003A48FEF731FD30E00020584908600022CA
:10261000012189033548FEF727FD26E0002201212C
:1026200089033248FEF720FD50480068042803D192
:1026300000204E49086006E04C480068022802D19C
:1026400003204A4908603B48006800280DD13D48F6
:102650000068012809D149480068012805D10220F5
:102660004249086000204549086040480068002849
:1026700006D001280AD0022819D0032829D11FE04A
:10268000002211461046FEF7B1FD28E00022E621A7
:102690003220FEF7ABFD4148FEF74CFF0022114609
:1026A0001046FEF7A3FD00203049086017E0002225
:1026B000DC21FF20FEF79AFD3948FFF759FE0EE0B6
:1026C00000221146FF20FEF791FD3548FFF750FE2E
:1026D00005E0E622FF210020FEF788FD00BF00BFD5
:1026E0000120FFF760FED9E600000B4000400B40E0
:1026F00038000020340000204C0000200D0A4469FE
:1027000073313A25332E326600000000500000205D
:102710000D0A446973323A25332E326600000000F8
:10272000540000200D0A446973333A25332E326673
:1027300000000000080000200D0A75703A20256492
:10274000000000000C0000200D0A646F776E3A2034
:10275000256400000D0A7765743A202564000000A6
:102760000D0A74656D3A2025640000000000002009
:102770000D0A72696E673A2025640000040000208B
:102780000D0A696E697469616C3A20256400000065
:102790000D0A0000000070410000C040140000203D
:1027A0000050434770B5002500241EE000BF802183
:1027B0001048FEF750FC0028F9D02120FFF700FE5A
:1027C00080210C48FEF747FC012805D10720011B9A
:1027D000012088402843C5B200BF80210548FEF78C
:1027E0003AFC0128F9D0601CC4B2082CDEDB284674
:1027F00070BD000000000B4070B505460E4601227A
:1028000080213748FEF7FAFB002280213448FEF78A
:102810002BFC1220FFF7BAFD012280213048FEF781
:1028200023FC1E20FFF7CCFD002280212C48FEF760
:10283000E5FB022280212A48FEF7F4FB01228021D9
:102840002748FEF7E5FB00BF80212548FEF703FC83
:102850000128F9D02820FFF7B3FD00BF80212048D0
:10286000FEF7F9FB0028F9D02820FFF7A9FD00BFEB
:1028700080211B48FEF7EFFB0128F9D0002405E07A
:10288000FFF790FF17490855601CC4B2052CF7DB11
:10289000144800781349497840181249897840183B
:1028A0001049C97840180F49097988420DD10D485F
:1028B000007800020B494978401830800948807838
:1028C00000020849C9784018288001228021044864
:1028D000FEF794FB012280210148FEF7C5FB70BD85
:1028E00000000B403C00002000000B4000200B408B
:1028F00000400B4000600B400000000000000000A2
:1029000002020200004000800200010101010303F5
:102910000010020004000101010C0102000004404B
:102920000000100006000000200006004C290000F6
:102930000000002064000000A61A0000B02900007A
:10294000640000203C020000B61A000000000000F5
:102950000100000000000000000000000000000076
:10296000000093430000934300002D440080104476
:1029700000002D4400801044000000000000000012
:102980000000000000000000000000000000000047
:102990000000000000000000000000000000000037
:1029A00000000000006CDC020000000000000000DD
:04000005000000C136
:00000001FF
